:020000040800F2
:100000000004002071030008710400087104000856
:1000100071040008710400087104000871040008EC
:10002000710400087104000871040008210500082B
:10003000710400087104000871040008E10400085C
:100040007104000831200008710400082121000813
:100050007104000871040008311E0008611E0008C8
:10006000911E0008C11E0008F11E000801180008BA
:100070003118000871180008B1180008F1180008BC
:1000800021190008611900087104000871040008B2
:10009000710400087104000871040008211F0008A1
:1000A000710400087104000871040008710400085C
:1000B0007104000871040008710400080127000899
:1000C0002127000861270008812700087104000823
:1000D00071040008512D0008710400087104000823
:1000E000A11F000861200008912000087104000889
:1000F000710400087104000871040008A1190008C7
:1001000071040008710400087104000871040008FB
:1001100071040008710400087104000871040008EB
:10012000E1190008111A0008511A0008911A000874
:10013000D11A000871040008C120000871040008E9
:1001400071040008710400087104000871040008BB
:10015000011B0008411B0008811B000871040008F6
:10016000C1270008E1270008710400087104000895
:10017000F1200008710400087104000871040008EF
:10018000710400087104000871040008710400087B
:10019000710400087104000871040008710400086B
:0C01A000710400087104000871040008DC
:1001B0002DE9F04784B001F043F900F069FA5249A3
:1001C0005248DFF860A1524E01F072F90021514807
:1001D00001F07EFA40F282324FF400714E4802F094
:1001E00097F84FF4806140F282324B4802F090F869
:1001F0002A22012345488AF800208AF8013001F0BC
:10020000D7F904210023029101935246009602235C
:100210001C213E4801F084F904463C4801F0E0F915
:1002200014B13A4801F06CF9DFF81091DFF8108151
:100230003A4D3B4F7B6983F480737B61642000F00F
:1002400017FE012431488AF8004001F0B1F9042179
:1002500006222346029101920096324A2B481C2125
:1002600001F05EF90446294801F0BAF9002C47D1A3
:1002700096F800C0717896F802E0F27830797379D8
:10028000294C01EB0C2102EB0E2203EB0023A9F811
:100290000010A8F800202B8078214FF0FF3223486F
:1002A00001F00EF814F8011F0029F6D1B9F9000089
:1002B0001F4C02F045FE20214FF0FF321B4800F09A
:1002C000FFFF14F8011F0029F6D1B8F90000194CFE
:1002D00002F036FE20214FF0FF32144800F0F0FF0C
:1002E00014F8011F0029F6D1B5F9000002F028FE2C
:1002F0004FF0FF33022210490C4801F039F899E71A
:10030000024801F0FDF8B3E7C0370008380E0020BE
:10031000200F0020A80E002000000240260F002021
:1003200000040240280F0020A0370008D80E00204B
:10033000A4370008AC370008B43700082C0F0020A1
:100340002E0F002000000000000000000000000050
:10035000704700BF00000000000000000000000027
:10036000FEE700BF000000000000000000000000E9
:1003700072B6304880F30988022383F31488BFF3F0
:100380006F8F2D4B2D4A93420BD2D9430A4422F052
:10039000030204321A444FF0553143F8041B9342D0
:1003A000FBD1274B83420BD2264AD21A22F00302FA
:1003B00004321A444FF0553143F8041B9342FBD1E9
:1003C00002F0AEFD204A214B9A420CD2D043184491
:1003D00020F003001E4B0430184453F8041B42F86D
:1003E000041B8342F9D11B4B1B4A93420AD2D943C7
:1003F0000A4422F0030204321A44002143F8041B89
:100400009A42FBD1154D164CFFF7A2FFAC4204D225
:1004100054F8043B9847AC42FAD3124D124CFFF704
:10042000C7FEAC4204D254F8043B9847AC42FAD31E
:10043000FFF796FF000800200000002000040020C5
:1004400000040020FF070020000800200008002012
:10045000D037000800080020300F0020AC01000851
:10046000AC010008AC010008AC010008000000006D
:10047000FEE700BF000000000000000000000000D8
:1004800072B6FEE70000000000000000000000005F
:1004900000F07EF900F044FC00F092F900DF00BFAC
:1004A000EFF30983A3F1200282F30988074A116858
:1004B00092698968926891424FF080708CBF044ABB
:1004C000044A43F8040C43F8082C70474C0D0020F4
:1004D000910400089C0400080000000000000000D7
:1004E00008B500F0C5F900F043F800F089F900F014
:1004F00007F900F09DF900F043F800F0D9F900F099
:1005000037F8054B5B681B0502D400F039F808BDCD
:10051000BDE80840FFF7C4BF00ED00E000000000A8
:1005200000B5EFF30983203383F3098800F028F83E
:100530005DF804FB00000000000000000000000067
:1005400008B5094B094A002199600720DA6010219B
:1005500000F076F820210A2000F072F880210B20AC
:10056000BDE8084000F06CB800ED00E00003FA05BB
:10057000202383F311887047000000000000000072
:10058000002383F311887047000000000000000082
:1005900000B5FFF7EDFF064B5B681B0503D55DF863
:1005A00004EBFFF77DBFFFF7EBFF5DF804FB00BF37
:1005B00000ED00E00000000000000000000000006E
:1005C0002DE9F04FC1F80CD0D0F80CD0BDE8F08F79
:1005D00008B500F0F5F8FFF7D3FF2846A04700F074
:1005E00087FC08BD000000000000000000000000C3
:1005F00070B420F0030404F1604404F56144C200C7
:100600004309D4F8005302F01802FF269B009640DD
:1006100003F16043914003F5614325EA060200F0CF
:100620001F00012505FA00F01143C4F80013C3F8B8
:10063000800170BC186070470000000000000000DE
:1006400020F0030303F1604303F56D4300F0030062
:1006500010B4C0009A69FF248440814022EA04005B
:100660000843986110BC70470000000000000000C3
:10067000024B034A9B699A61FEE700BF4C0D0020C4
:10068000D02F000800000000000000000000000063
:1006900030B583B0FFF754FF00F032FA00F0C8F92C
:1006A00000F0B6FE00F054F940210E480E4D00F067
:1006B0003FFB01240D4BC36180F82040A86100F08E
:1006C0004FF8002383F3118862B6AA690849916143
:1006D000084800932246084BE02100F099FB03B044
:1006E00030BD00BF000800204C0D00200004002099
:1006F0004031000848080020710600080000000092
:10070000F8B500F0F5F8124B124D9A692C68536A4F
:1007100001335362EB68AC4203F10103EB6016D086
:10072000A768013FA76097B92368E668E7605D6046
:100730002B6000F07DF8FFF723FF2069B047FFF73B
:1007400017FF00F05DF82C68A368002BECD0F8BD13
:100750004C0D00203C0D00200000000000000000B7
:10076000054B1B6813B9054B1B6823B1044B054AA5
:100770001A60FFF785BE704728090020340D00205D
:10078000380D0020F02F00080000000000000000DD
:10079000074B1B6810B5074C0BB9236823B1064BF8
:1007A000064A1A60FFF76CFE0123236010BD00BFEC
:1007B00028090020340D0020380D0020F82F0008F3
:1007C000094B1B6810B5094C2BB92368002B02DDBF
:1007D0000023236010BD064B064A1A60FFF750FE47
:1007E0000023236010BD00BF28090020340D002025
:1007F000380D00200030000800000000000000005C
:10080000074B1B68002B10B5064C01DD236823B194
:10081000054B064A1A60FFF733FE0123236010BD23
:1008200028090020340D0020380D00200830000871
:10083000094B1B68002B10B5084C05DD2368002B05
:1008400002DD0023236010BD054B064A1A60FFF746
:1008500017FE0023236010BD28090020340D00205E
:10086000380D0020103000080000000000000000DB
:1008700010B5FFF77DFE094C2368002B02DB084A08
:1008800012682AB1074B084A1A60FFF7F9FD23687E
:1008900001332360FFF774FE10BD00BF280900205C
:1008A000340D0020380D0020183000080000000032
:1008B00010B5FFF75DFE094C2368002B02DD084AE6
:1008C00012682AB1074B084A1A60FFF7D9FD23685E
:1008D000013B2360FFF754FE10BD00BF2809002034
:1008E000340D0020380D00202030000800000000EA
:1008F000064B1B68002B04DB054B1B68002B00DD3F
:100900007047044B044A1A60FFF7BABD280900205B
:10091000340D0020380D00202830000800000000B1
:10092000064B1B6823B9064B1B68002B00DD704784
:10093000044B054A1A60FFF7A3BD00BF2809002039
:10094000340D0020380D0020303000080000000079
:10095000034A1346402143F8081B5360704700BF09
:100960002C09002000000000000000000000000032
:100970000B4A0C495368896910B40B4CE4681C603D
:100980005960816A996090F820101973103302F54C
:1009900081618B4228BF02F10803536010BC70478D
:1009A0002C0900204C0D00203C0D00200000000010
:1009B000014B1860FFF764BD380D002000000000F7
:1009C00010B40B4603E09C688268944202D31B6813
:1009D0009942F8D15A684260036010BC58601060B8
:1009E000704700BF00000000000000000000000091
:1009F0004B6880E80A0048601860704700000000FB
:100A00000346006802681A605360704700000000E7
:100A100090E80600116003685A607047000000000B
:100A200003681A6802601846704700BF00000000A3
:100A3000044B4FF0FF3100225B601B609960DA606D
:100A4000704700BF3C0D00200000000000000000C7
:100A5000F8B505460C4616461F46FFF749FFCDB1CF
:100A6000C6B1BCB10D492F610B68EE609A68944223
:100A700004D91B68A41A9A68A242FAD35A686A6019
:100A80008B422B605D601560AC6002D09968091BD9
:100A90009960F8BD0248FFF78BFFE3E73C0D0020AB
:100AA00040300008000000000000000000000000CE
:100AB00010B50446FFF71CFF84B1E36893B12368C7
:100AC0000A4A934203D09968A2680A449A6062680D
:100AD0001360216800234A60E36010BD0448FFF7FB
:100AE00067FFEAE70348FFF763FFE8E73C0D0020F4
:100AF00050300008603000080000000000000000D6
:100B0000034B00225B601B605B611B619A60704756
:100B10004C0D00200000000000000000000000005C
:100B200010B50446FFF7E4FE94F820308BB10E2B8D
:100B30000FD00022A168094B84F820201B689A6816
:100B40008A42FBD25A686260236020465C6014606F
:100B500010BD0348FFF72CFFEBE700BF4C0D002052
:100B600080300008000000000000000000000000CD
:100B700010B50446FFF7FCFCFFF742FE94F8203066
:100B8000032B0DD00D2B0FD02BB14FF0FF33A362F1
:100B90002046FFF7C5FFFFF74BFEFFF7F1FC10BD46
:100BA000A26A9368013393602046FFF731FFECE7B8
:100BB00070B5104C0646FFF7B3FEA569204685F8D0
:100BC0002060FFF71DFF0122034680F82020284601
:100BD000A361FFF7CDFEEA69ADF124039A4202D981
:100BE0000548FFF7E5FE2946A069BDE87040FFF71C
:100BF000E7BC00BF4C0D002094300008000000004E
:100C000070B50C4686B00646FFF78AFE631C12D00C
:100C10000D4D0E4AAB69214601A8FFF719FF30467A
:100C2000FFF7C6FF049B13B101A8FFF741FFAB69B3
:100C3000986A06B070BD044D3046FFF7B9FFAB6946
:100C4000986A06B070BD00BF4C0D0020710B000803
:100C500070B5164D04460E46FFF762FEA869A662FF
:100C60008368A2689A4213D9FFF75AFF0123064608
:100C700084F82030AC61FFF77BFEF269ADF124030C
:100C80009A420AD831462046BDE87040FFF798BC2A
:100C90002046BDE87040FFF743BF0548FFF788FED8
:100CA00031462046BDE87040FFF78ABC4C0D00205D
:100CB0009430000800000000000000000000000068
:100CC000F8B5144E3046B569FFF79AFE012380F857
:100CD00020300023AC6885F820303746B0613346B9
:100CE0001B689A68A242FBD85A686A602B60284643
:100CF0005D601560FFF73CFEEA69ADF124039A429E
:100D000002D90548FFF754FE2946B869BDE8F84006
:100D1000FFF756BC4C0D0020943000080000000086
:100D2000FFF7CEBF00000000000000000000000040
:100D3000F0B50F4C416465698160002200F130011B
:100D40004FF0020E00F12C0700F1480645610461E6
:100D500080F820E0606180F821200264C263426272
:100D600082612861C762C66141630163F0BD00BF53
:100D70004C0D0020000000000000000000000000FA
:100D80002DE9F04104460D4617469846FFF7B0FDA1
:100D90000CB1CF2D2CD81948FFF70AFEA5F124017C
:100DA00065181748069B4669164AE5604FF0020C25
:100DB00044F801806B6000232A6204F1480104F1C9
:100DC000300204F12C0584F820C084F82130206121
:100DD000A7606661676444612364E3636362A3613F
:100DE00020463461E56262632263E161BDE8F0811F
:100DF0007F2FD0D8B8F1000FD0D1CCE7B0300008A9
:100E00004C0D0020D105000800000000000000008B
:100E10002DE9F04782B09A460A9E074688469146D9
:100E200000F148040346FF2503F8015B9C42FBD117
:100E300007EB08039C4204D2552504F8015BA3424A
:100E4000FBD1FFF795FBFFF7A3FC53464A4641460B
:100E500000963846FFF794FF00210446FFF7F8FE9E
:100E6000FFF7AEFCFFF78CFB204602B0BDE8F08731
:100E700010B5044610B90848FFF79AFDFFF778FB54
:100E8000FFF786FC21460620FFF7BAFEFFF798FC25
:100E9000FFF776FB10BD00BFF03000080000000037
:100EA00038B5104B9D69EB6AA86205F12C049C4291
:100EB00007D02046FFF7B4FDFFF732FEEB6AA342EE
:100EC000F7D195F821309B0704D16B692A691A6123
:100ED0002A6953610E20FFF76BFE0348BDE83840D6
:100EE000FFF766BD4C0D0020003100080000000037
:100EF00010B50446FFF73CFBFFF74AFC2046BDE86F
:100F00001040FFF7CDBF00BF000000000000000050
:100F100010B5044620B1002364602460A36010BDB6
:100F20000148FFF745FDF6E76031000800000000CA
:100F3000264B70B505469E69FFF7F2FC002D41D0A7
:100F4000AC68002C39D0B368A268934206D994F8F3
:100F50002020A36042B3042A204615D029463046FB
:100F6000FFF72EFDB5620420FFF722FEAB689E421C
:100F700002D01748FFF71CFD336C9D4221D0154865
:100F8000BDE87040FFF714BDFFF742FDA16AFFF70F
:100F900017FDA26AB3689468A2689A42DED294F8F8
:100FA0002020A360002AD6D1012384F820302046D7
:100FB000FFF72EFDFFF7B4FDD0E7336CEB60AE60BA
:100FC000356470BD0448FFF7F3FCB9E74C0D002011
:100FD00080310008943100087031000800000000E2
:100FE00010B50446FFF7C4FAFFF7D2FB2046FFF71F
:100FF0009FFFFFF7E5FBFFF7C3FA10BD00000000FD
:1010000038B51F4B9D69FFF7B3FAFFF7C1FB2C6C96
:10101000002C30D0A3689D4203D01A48FFF7C8FCCB
:101020002C6C2268E3682B64A2421CD0696C4BB123
:101030001A689A4203D09268914238BF1146DB6821
:10104000002BF5D1A9602046FFF7DAFC026CA06006
:10105000E26000210464FFF7FBFDFFF7B1FBFFF73F
:101060008FFA204638BD0023A360FFF7A9FBFFF7E6
:1010700087FA204638BD0448FFF79AFC2C6CC9E774
:101080004C0D0020D0310008BC31000800000000E9
:1010900038B504460D46FFF72BFCBCB1E36B94F862
:1010A000202045EA0301082AE1630BD0092A00D079
:1010B00038BDA36A8B43FBD12046FFF731FD0023E7
:1010C000836238BDA36A1942F6D138BD0148FFF7E3
:1010D0006FFCE3E73C320008000000000000000065
:1010E00070B505460E46FFF703FC65B12C68A542B6
:1010F00008D0201D0BC83343E360FFF7C9FF246805
:10110000A542F6D170BD0248FFF752FCEEE700BFE2
:101110005032000800000000000000000000000045
:1011200071B110B5084A034690690C4683621946AE
:10113000FFF75EFC21460D20BDE81040FFF760BDC3
:101140004FF0FF30704700BF4C0D00200000000042
:1011500030B4029C046200250A448560026140604C
:10116000006041618161C160C36130BC704700BFF4
:1011700038B504460D46FFF7BBFBA36962699A4286
:10118000A3681BD00133511CA360616115706269B3
:1011900023699A420BD22368A3420DD02046FFF761
:1011A0002FFCFFF7BDFC00238362184638BDE368BF
:1011B00063612368A342F1D1002038BD002BE1D048
:1011C0006FF0030038BD00BF000000000000000009
:1011D00070B504460E46FFF7CBF9FFF7D9FAE3697D
:1011E00033B12046984703E0FFF79AFF051E10DB56
:1011F000A36831462046002BF6D0A16920694A1C1D
:10120000013B8242A360A26128BFE3680D7828BF3A
:10121000A361FFF7D5FAFFF7B3F9284670BD00BF09
:101220002DE9F843044688461D46C76991468AB3AE
:10123000FFF79EF9FFF7ACFA00262FB12046B8471A
:1012400002E0FFF76DFFF0B9A36829462046002BA6
:10125000F7D0A269013B511CA161A360137808F883
:10126000013B2369A2699A4224BFE368A361FFF7A7
:10127000A7FAFFF785F90136B14508D0FFF778F9ED
:10128000FFF786FAD9E7FFF79BFAFFF779F93046BF
:10129000BDE8F8830148FFF78BFBC9E7A0320008DF
:1012A00030B4029C04628D18056140600060826069
:1012B00041618161C160C36130BC704700000000C2
:1012C000F8B504460F461646FFF752F9FFF760FAE5
:1012D00003E0FFF725FF051E1ADBA3683146204611
:1012E000002BF6D06269013B511C6161A36017704D
:1012F000236962699A4224BFE3686361E3690BB1C1
:1013000020469847FFF75CFAFFF73AF90020F8BD4E
:10131000FFF756FAFFF734F92846F8BD0000000041
:1013200038B50446FFF7E4FA6369A2699342A368FB
:1013300016D02069511C0133A360A1618142157848
:101340000BD22368A34206D02046FFF759FBFFF7D4
:10135000E7FB00238362284638BDE368A361F0E71A
:10136000002BE6D06FF0020038BD00BF0000000087
:101370002DE9F04704460D469A46D0F81C901646D3
:10138000002A3AD0FFF7F4F8FFF702FA4FF000080E
:10139000A3686F1C5A1E204613B36369A2605A1CCF
:1013A00062612A781A70236962699A4224BFE368ED
:1013B0006361B9F1000F00D0C847FFF701FAFFF7EA
:1013C000DFF8013E08F1010814D0FFF7D1F8FFF76C
:1013D000DFF9A3683D465A1E6F1C2046002BDCD166
:1013E00051462046FFF79CFE0028D1D0FFF7E8F9D0
:1013F000FFF7C6F84046BDE8F0870248FFF7D8FA85
:10140000C0E700BFB4320008000000000000000088
:10141000054A064B0648074922F0070223F0070356
:1014200002600B60704700BF370F002000C0012032
:101430006C0D0020680D002000000000000000007E
:1014400008B500F045FC00F0BBF9064800F088FE46
:1014500000F00EF800F01CF800F012F9BDE80840AA
:1014600001F066BDA036000800000000000000008A
:1014700000F06EBE00000000000000000000000050
:101480000122002302704360704700BF000000008B
:1014900001F0C6B9000000000000000000000000DC
:1014A00001220023027043600C30FFF731BD00BF02
:1014B00038B50D460446C0B1B9B123785A1E012A89
:1014C00004D9052B02D00B48FFF772FAFFF750F84A
:1014D000FFF75EF92046656001F0E2F90223237010
:1014E000FFF76EF9FFF74CF838BD0348FFF760FAD5
:1014F000E3E700BFE0320008D0320008000000003F
:1015000010B5044608B1A06810BD0248FFF750FAB4
:10151000A06810BD0C3300080000000000000000AF
:101520002DE9F04685B00E46924699460D9D04463B
:1015300000B149BB1A48FFF73BFA2378022B02D0CF
:101540001848FFF735FAFFF713F8FFF721F90027DE
:1015500003202070A760314601950E9E0C9D0095DA
:101560004B4652462046029601F05AFB431C0CBFE4
:101570000523022323700546FFF722F9FFF700F841
:10158000284605B0BDE8F086002BD3D0002AD1D084
:1015900015B10C9B002BCDD00E9B002BCDD1C9E7F4
:1015A0002033000840330008000000000000000065
:1015B00010B5044628B104F10C00BDE81040FFF757
:1015C0000FBD0448FFF7F4F904F10C00BDE810402A
:1015D000FFF706BD94330008000000000000000083
:1015E00008B1FFF70DBD08B50348FFF7E1F9BDE805
:1015F0000840FFF705BD00BFA83300080000000049
:101600000C30FFF70DBE00BF00000000000000001E
:101610000C304FF0FF33FFF703BE00BF00000000A7
:101620003030FFF7A5BE00BF000000000000000042
:1016300030304FF0FF33FFF79BBE00BF00000000CB
:101640000C30FFF7C5BD00BF000000000000000027
:101650000C304FF0FF31FFF7BBBD00BF00000000B2
:101660003030FFF72DBE00BF00000000000000007A
:1016700030304FF0FF32FFF723BE00BF0000000004
:1016800001F0EEBB000000000000000000000000C0
:1016900070B50E4B044682B040F8043B012600941E
:1016A00015460B46606004F1540104F10C002672EB
:1016B0001022FFF74DFD00942B4604F1640104F164
:1016C00030001022FFF7ECFD02B070BD203400089E
:1016D00038B50D460446A8B1FEF74AFFFFF758F8A3
:1016E000237A013B012B02D90848FFF761F929460B
:1016F000204601F0C5FB02232372FFF761F8FEF7D5
:101700003FFF38BD0248FFF753F9E5E7CC33000847
:10171000C0330008000000000000000000000000CE
:1017200038B504460D46FFF7E3F8D4B163693BB121
:10173000294604F10C00FFF71BFD00280BDB38BD28
:1017400004216018FFF7CCFC294604F10C00FFF7D8
:101750000FFD0028F3DA201D8021BDE83840FFF797
:10176000BFBC0248FFF724F9E0E700BFF8330008E8
:10177000014B5B6883607047001000E000000000D0
:101780000A4A0B498368526810B40C68C168D31ABE
:101790001B1B8B42836005D8026910BC934238BF83
:1017A00003617047C36010BC704700BF001000E0C9
:1017B000700D00200000000000000000000000008C
:1017C00010B586B00A4C0B4B0B4901934FF0FF301C
:1017D00000230590236004934B68084A039301A8F3
:1017E0000292FFF7CDFF039B236006B010BD00BF40
:1017F000700D002071170008001000E0811700082C
:1018000008B5FFF735F8084B084A196801F03D01A3
:10181000996013680BB150689847FFF749F8BDE825
:101820000840FEF7B5BE00BF00600240740D002006
:1018300010B5FFF71DF8094B094819688268890936
:1018400001F03D018C019C600AB1C0689047FFF730
:101850002FF8BDE81040FEF79BBE00BF00600240BD
:10186000740D0020000000000000000000000000D7
:1018700010B5FEF7FDFF094B094819680269090C0C
:1018800001F03D010C049C600AB140699047FFF7EC
:101890000FF8BDE81040FEF77BBE00BF00600240BD
:1018A000740D002000000000000000000000000097
:1018B00010B5FEF7DDFF094B094819688269890DEB
:1018C00001F03D018C059C600AB1C0699047FEF7AC
:1018D000EFFFBDE81040FEF75BBE00BF00600240B6
:1018E000740D002000000000000000000000000057
:1018F00008B5FEF7BDFF084B08485968026A01F0B9
:101900003D01D9600AB1406A9047FEF7D1FFBDE8BA
:101910000840FEF73DBE00BF00600240740D00208D
:1019200010B5FEF7A5FF094B09485968826A890975
:1019300001F03D018C01DC600AB1C06A9047FEF7FE
:10194000B7FFBDE81040FEF723BE00BF00600240B5
:10195000740D0020000000000000000000000000E6
:1019600010B5FEF785FF094B09485968026B090C51
:1019700001F03D010C04DC600AB1406B9047FEF7BA
:1019800097FFBDE81040FEF703BE00BF00600240B5
:10199000740D0020000000000000000000000000A6
:1019A00010B5FEF765FF094B09485968826B890D30
:1019B00001F03D018C05DC600AB1C06B9047FEF779
:1019C00077FFBDE81040FEF7E3BD00BF00600240B6
:1019D000740D002000000000000000000000000066
:1019E00008B5FEF745FF084B08481968026C01F07E
:1019F0003D0199600AB1406C9047FEF759FFBDE880
:101A00000840FEF7C5BD00BF00640240740D002011
:101A100010B5FEF72DFF094B09481968826C89093A
:101A200001F03D018C019C600AB1C06C9047FEF74B
:101A30003FFFBDE81040FEF7ABBD00BF00640240B1
:101A4000740D0020000000000000000000000000F5
:101A500010B5FEF70DFF094B09481968026D090C16
:101A600001F03D010C049C600AB1406D9047FEF707
:101A70001FFFBDE81040FEF78BBD00BF00640240B1
:101A8000740D0020000000000000000000000000B5
:101A900010B5FEF7EDFE094B09481968826D890DF6
:101AA00001F03D018C059C600AB1C06D9047FEF7C6
:101AB000FFFEBDE81040FEF76BBD00BF00640240B2
:101AC000740D002000000000000000000000000075
:101AD00008B5FEF7CDFE084B08485968026E01F0C4
:101AE0003D01D9600AB1406E9047FEF7E1FEBDE8C6
:101AF0000840FEF74DBD00BF00640240740D002099
:101B000010B5FEF7B5FE094B09485968826E890980
:101B100001F03D018C01DC600AB1C06E9047FEF718
:101B2000C7FEBDE81040FEF733BD00BF00640240B1
:101B3000740D002000000000000000000000000004
:101B400010B5FEF795FE094B09485968026F090C5C
:101B500001F03D010C04DC600AB1406F9047FEF7D4
:101B6000A7FEBDE81040FEF713BD00BF00640240B1
:101B7000740D0020000000000000000000000000C4
:101B800010B5FEF775FE094B09485968826F890D3B
:101B900001F03D018C05DC600AB1C06F9047FEF793
:101BA00087FEBDE81040FEF7F3BC00BF00640240B2
:101BB000740D002000000000000000000000000084
:101BC0000E490F4A0F48002310B40B600E4C194603
:101BD00001E052F80C0C016044F833100133102B73
:101BE00002F10C02F5D10949094A10BC4FF0FF334C
:101BF0008B60CB609360D360704700BFF40D002012
:101C00009C34000810600240740D00200060024007
:101C1000006402400000000000000000000000001E
:101C2000F0B5054685B000283FD0244C6F7A266871
:101C3000012000FA07FE1EEA060F2BD120484EEACB
:101C4000060600EBC70E16F0FF0F266040F837209F
:101C5000CEF8043004D01B48036B43F40013036335
:101C600016F47F4F18D12B68186820F01F001860F9
:101C7000186810F00104FBD12F7A6E683D20B8403F
:101C8000212730601C605F6162B1A87A0901FEF70C
:101C9000AFFC204605B0F0BD0A48036B43F4800357
:101CA0000363E0E7104605B0F0BD074803930292D6
:101CB0000191FEF77DFE01A90EC9B6E7F40D0020E3
:101CC000740D00200038024040340008000000007D
:101CD0001F4B20491A694FF0FF300022F0B5186100
:101CE0001A615C6958615A611C6A1B4E1B4F1C4D7E
:101CF00064F080541C621A620724D3F824E058620E
:101D00005A624F608A600C60F168164841F0807139
:101D1000F160296841F001012960196C41F080519E
:101D20001964016841F480710160196F01F4407118
:101D3000B1F5007F03D04FF4803119671A67094A63
:101D4000536823F400735360BDE8F040FFF738BFD9
:101D50000038024010E000E0F0ED00E03F900200AB
:101D6000001000E0007000400000000000000000D3
:101D70002A4A2B4B4FF080504FF4404110641960B9
:101D8000136843F001031360136824499807FBD5D7
:101D90000B68002203F0F9030B6008468A60826832
:101DA0001E4B12F00C0FFAD11A6842F480321A60FE
:101DB0001A461168194B8903FBD55A6F42F001028C
:101DC0005A675A6F15499007FBD5164B4B600B6845
:101DD000134A43F080730B6053685904FCD50F49D4
:101DE0000A680E4B9201FBD50F4A1049996040F2E8
:101DF000057111609A6842F002029A601A4693686F
:101E0000064903F00C03082BF9D14B6C43F48043D3
:101E10004B644B6E43F480434B667047003802407E
:101E20000070004008544007003C0240009408380D
:101E300008B5FEF71DFD0748074A436801215B68A6
:101E4000516100219847FEF733FDBDE80840FEF7D9
:101E50009FBB00BFF80D0020003C014000000000C7
:101E600008B5FEF705FD0748074A43680221DB680D
:101E7000516101219847FEF71BFDBDE80840FEF7C0
:101E800087BB00BFF80D0020003C014000000000AF
:101E900008B5FEF7EDFC0748074A436804215B6973
:101EA000516102219847FEF703FDBDE80840FEF7A7
:101EB0006FBB00BFF80D0020003C01400000000097
:101EC00008B5FEF7D5FC0748074A43680821DB69D7
:101ED000516103219847FEF7EBFCBDE80840FEF78F
:101EE00057BB00BFF80D0020003C0140000000007F
:101EF00008B5FEF7BDFC0748074A436810215B6A36
:101F0000516104219847FEF7D3FCBDE80840FEF775
:101F10003FBB00BFF80D0020003C01400000000066
:101F200010B5FEF7A5FC194B5C6904F478725A6190
:101F3000A30624D460061CD4210614D4E2050CD4D4
:101F4000A30504D5124843680921DB6C9847FEF7C6
:101F5000AFFCBDE81040FEF71BBB0D4843680821ED
:101F60005B6C9847ECE70A4843680721DB6B9847AE
:101F7000E4E70748436806215B6B9847DCE70448C1
:101F800043680521DB6A9847D4E700BF003C014065
:101F9000F80D00200000000000000000000000001C
:101FA00010B5FEF765FC1D4B5C6904F47C425A6178
:101FB00062052CD4230524D4E0041CD4A10414D439
:101FC00062040CD4230404D5154843680F21DB6F49
:101FD0009847FEF76DFCBDE81040FEF7D9BA1048EF
:101FE00043680E215B6F9847ECE70D4843680D216D
:101FF000DB6E9847E4E70A4843680C215B6E98471C
:10200000DCE7074843680B21DB6D9847D4E70448B9
:1020100043680A215B6D9847CCE700BF003C014054
:10202000F80D00200000000000000000000000008B
:1020300008B5FEF71DFC0848084A43684FF4803194
:10204000D3F88430516110219847FEF731FCBDE888
:102050000840FEF79DBA00BFF80D0020003C01408B
:1020600008B5FEF705FC0848084A43684FF40031FC
:10207000D3F88C30516111219847FEF719FCBDE867
:102080000840FEF785BA00BFF80D0020003C014073
:1020900008B5FEF7EDFB0848084A43684FF4802175
:1020A000D3F89430516112219847FEF701FCBDE846
:1020B0000840FEF76DBA00BFF80D0020003C01405B
:1020C00008B5FEF7D5FB0848084A43684FF40021DD
:1020D000D3F89C30516113219847FEF7E9FBBDE826
:1020E0000840FEF755BA00BFF80D0020003C014043
:1020F00008B5FEF7BDFB0848084A43684FF4801155
:10210000D3F8A430516114219847FEF7D1FBBDE804
:102110000840FEF73DBA00BFF80D0020003C01402A
:1021200008B5FEF7A5FB0848084A43684FF480014C
:10213000D3F8B430516116219847FEF7B9FBBDE8DA
:102140000840FEF725BA00BFF80D0020003C014012
:102150000148FFF795B900BFF80D0020000000000E
:10216000F0B4654D654C2F6B6549664A664B40F28D
:10217000FF1637432F632F6D3E432E65456865601C
:102180008568A560C568E560056965614569256282
:102190008569656205682560046A4C60446A8C60E4
:1021A000846ACC60C46A4C61046B0C62446B4C6200
:1021B000C4690C60C16B5160016C9160416CD1606D
:1021C000816C5161C16C1162016D5162816B116052
:1021D000826D5A60C26D9A60026EDA60426E5A6118
:1021E000826E1A62C26E5A62426D1A60426FC3F802
:1021F0000424826FC3F80824C26FC3F80C24D0F8FB
:102200008020C3F81424D0F88420C3F82024D0F808
:102210008820C3F82424026FC3F80024D0F890204B
:10222000C3F80428D0F89420C3F80828D0F89820E0
:10223000C3F80C28D0F89C20C3F81428D0F8A020AC
:10224000C3F82028D0F8A420C3F82428D0F88C2084
:10225000C3F8002803F54063D0F8AC205A60D0F8EA
:10226000B0209A60D0F8B420DA60D0F8B8205A6173
:10227000D0F8BC201A62D0F8C0205A62D0F8A8204A
:102280001A60D0F8C820C3F80424D0F8CC20C3F8D2
:102290000824D0F8D020C3F80C24D0F8D420C3F8F8
:1022A0001424D0F8D820C3F82024D0F8DC20C3F8B8
:1022B0002424D0F8C420C3F80024D0F8E420C3F8C4
:1022C0000428D0F8E820C3F80828D0F8EC20C3F898
:1022D0000C28D0F8F020C3F81428D0F8F420C3F864
:1022E0002028D0F8F820C3F82428D0F8E020C3F83C
:1022F0000028F0BC704700BF0038024000000240D8
:102300000004024000080240000C024000000000EF
:102310002DE9F04F4FF00F0C02F0030EC2F38007CF
:10232000C2F3C106C2F341150024C2F3C3124FF039
:1023300001094FF0030830E0D0F820B02BEA030386
:1023400043EA0A030362436809FA04FA23EA0A0328
:102350003B4343606300D0F808A008FA03F3DB4373
:102360000AEA030A4AEA060AC0F808A0D0F80CA054
:1023700003EA0A0A4AEA050AC0F80CA0D0F800A04D
:1023800003EA0A0343EA0E030360490819D07F00F9
:10239000B600AD004FEA8E0E013404F007039B0037
:1023A00011F0010F02FA03FA0CFA03F3EDD0072C37
:1023B000C2D9D0F824B02BEA030343EA0A034362EC
:1023C000C1E7BDE8F08F00BF000000000000000082
:1023D00030B4436B046B4FF4004122681980002134
:1023E000198099809982136823F01F031360136882
:1023F000D907FCD4C16A257A60680A683D23AB40DE
:102400000360136823F01F0313601368DB07FCD419
:10241000087A4A683D238340136030BC704700BF90
:10242000F8B5446B434A238BA58AADB245EA034312
:1024300023F07F43934251D01ED8073A934241D0B4
:102440000132934213D1A388C26A23F400731B04A0
:1024500012681B0CA380136843F001031360A38868
:102460009BB243F48053A3805368012B5BD915F0D2
:102470000A0F18BF238BF8BD2F4A934211D00232A6
:102480009342F4D1C36A1B685F68002F2FD0238862
:10249000028C9BB243F4A06342F0010202842380C9
:1024A000F8BDA388026B23F400731B0412681B0C95
:1024B000A380136843F00103136015F00A0F18BFDF
:1024C000238BF8BD038C1A0A0BD003F0010343F0F1
:1024D000F00302F0060213432382C8E7038CC3F320
:1024E0004703238215F00A0F18BF238BF8BDA3887A
:1024F00023F400731B041B0CA38023889BB243F4BA
:10250000007306462380FEF733F8FEF779F9F36986
:1025100023B1F76118469F62FEF702FBFEF788F9C8
:10252000FEF72EF8A3E7238823F480631B041B0C1B
:1025300023809CE7080003008200070000000000E1
:1025400070B5056B2A68136823F01F0313601368C6
:10255000DE07FCD42E7AC46A6D6822683D23B3403E
:102560002B60136823F01F031360136813F001033B
:10257000FBD1257A64683D22AA40CD05226048BF80
:1025800001238C05836044BF43F0020383604A0546
:102590000ED5446BA28822F400721204120CA280A1
:1025A000228892B243F0040342F4007222808360D6
:1025B0000E0544BF43F0080383604D0444BF43F05D
:1025C00020038360CC0418D543F010030904836012
:1025D00018D40446FDF7CCFFFEF712F9E3693BB1CE
:1025E00000216FF00102E16118469A62FEF798FA45
:1025F000FEF71EF9FDF7C4FF70BD0A0402D4002BDC
:10260000E7D170BD43F040038360E2E700000000C3
:1026100038B50546FDF7ACFFFEF7F2F8EC6954B1AA
:102620002846FFF7D5FE00224FF0FF33EA6120462F
:10263000A362FEF775FAFEF7FBF8FDF7A1FF38BDC0
:1026400011F00C0F38B50546446B13D1296B0A689D
:10265000136823F01F0313601368DB07FCD4087AA8
:102660004A683D2383401360A3889BB243F4007300
:10267000A38038BDFDF704FFE8E700BF00000000BD
:1026800011F00C0F70B50646456B2FD1F16A0A6840
:10269000136823F01F031360136813F00104FBD1C8
:1026A000087A4A683D2383401360AB8823F4805343
:1026B0001B041B0CAB802B8823F480631B041B0CB6
:1026C0002B802B889BB243F400732B80FDF750FFC7
:1026D000FEF796F8F36923B1F46118469C62FEF7A1
:1026E0001FFAFEF7A5F8FDF74BFF70BDFDF7C8FE1A
:1026F000CCE700BF00000000000000000000000068
:1027000008B5FEF7B5F80448FFF78AFEFEF7D0F8E3
:10271000BDE80840FDF73CBF000E002000000000AF
:1027200038B50C4D6B6B9C8AA4B2FEF7A1F804F48B
:102730005F436A6B83F47F4383F0FF0321469382F8
:102740002846FFF7FDFEFEF7B3F8BDE83840FDF779
:102750001FBF00BF000E00200000000000000000AE
:1027600008B5FEF785F80448FFF75AFEFEF7A0F813
:10277000BDE80840FDF70CBF380E00200000000047
:1027800038B50C4D6B6B9C8AA4B2FEF771F804F45B
:102790005F436A6B83F47F4383F0FF032146938298
:1027A0002846FFF7CDFEFEF783F8BDE83840FDF779
:1027B000EFBE00BF380E0020000000000000000047
:1027C00008B5FEF755F80448FFF72AFEFEF770F843
:1027D000BDE80840FDF7DCBE700E002000000000E0
:1027E00038B50C4D6B6B9C8AA4B2FEF741F804F42B
:1027F0005F436A6B83F47F4383F0FF032146938238
:102800002846FFF79DFEFEF753F8BDE83840FDF778
:10281000BFBE00BF700E00200000000000000000DE
:102820002DE9F041144F154C154E164D3846FEF764
:1028300037FE154B7B634FF0000804F14803304628
:10284000FC623B63C7F81C80FEF72AFE04F1180700
:1028500004F154030D4A33632846C6F81C807263A2
:10286000F7623034FEF71CFE094BEF622C63C5F8AB
:102870001C806B63BDE8F081000E002090340008DE
:10288000380E0020700E0020005400400058004018
:10289000005C00400000000000000000000000009C
:1028A000037840F256422DE9F041012B826240F25A
:1028B000164204464262456B6FD02F46E16A226B96
:1028C0006368086811685E6893F80880B24A05F189
:1028D000100383608B604FF400412980731E002138
:1028E000298093424FF41061A98002D9AB48FEF7CA
:1028F0005FF8BB88AA4A23F03F031B041B0CBB8074
:10290000BB889BB243F02A039642BB8036DCB8F109
:10291000010F02D0A348FEF74BF87600A24A92FBC3
:10292000F6F306FB03F3D21A002A40F088809E4B90
:1029300093FBF6F6B3B2032B79D92B22B3F5805F64
:10294000C6F30B063A8402D39848FEF731F8636861
:10295000616B1A78BE830B88022A9BB261D0032A6E
:102960005CD0012A02D123F00A039BB20B802B8892
:102970009BB243F001032B80BDE8F0818C4B9E425B
:102980004ADCA8F10203012B64D98A48FEF710F84B
:1029900048F6FF760D233B84D9E7874EB04200F01E
:1029A0008B80864EB04200F0B980854EB04284D113
:1029B000844BC06A196A844A41F4000100271962F5
:1029C0001F6205212346FFF72BF9002840F01081F4
:1029D0007B4B7E4A306B0521FFF722F9002840F03F
:1029E0000381784A136C43F4000313645021482098
:1029F000FDF7FEFD50214920FDF7FAFD726AB36A2A
:102A0000776B42F0C06243F0C06342F4403243F45B
:102A100040337262B36251E7002698E743F00A033D
:102A2000A4E723F008039BB243F002039EE7684843
:102A3000FDF7BEFF2B23C6F30B063B8487E76548F3
:102A4000FDF7B6FF584B93FBF6F6B3B2032B3FF6F8
:102A500074AFECE7B8F1020F15D106EB4606524A07
:102A600092FBF6F306FB03F3D21A42B94E4B93FBEB
:102A7000F6F66FEA46466FEA5646B6B28AE7564819
:102A8000FDF796FFF2E7B8F1030F40F0BD8006EBCB
:102A9000860606EB8606444A92FBF6F306FB03F332
:102AA000D21A002A6CD1404B93FBF6F66FEA8646A9
:102AB0006FEA9646B6B26DE7424BC06A196A424A5F
:102AC00041F40011002719621F6205212346FFF718
:102AD000A7F800285CD1384B3C4A306B0521FFF742
:102AE0009FF8002850D1374A136C43F40013136445
:102AF00050211F20FDF77CFD50212020FDF778FD9F
:102B0000726AB36A776B42F0007243F0007342F46A
:102B1000403243F440337262B362CFE6294BC06A5D
:102B2000196A294A41F48001002719621F620521B0
:102B30002346FFF775F8002862D1204B234A306BFB
:102B40000521FFF76DF8002856D11E4A136C43F497
:102B50008003136450212120FDF74AFD50212220DB
:102B6000FDF746FD726AB36A776B42F0606243F02C
:102B7000606342F4403243F440337262B3629DE6D4
:102B80001648FDF715FF8EE71548FDF711FFAAE778
:102B90001448FDF70DFF9EE7FF083D00C83500080B
:102BA000A0860100E035000880DE80027036000853
:102BB000801A060028360008000E0020380E00207B
:102BC000700E0020003802408126000841260008CF
:102BD00010360008F835000840360008583600085E
:102BE00064350008503500080948FDF7E1FEF8E6B5
:102BF0000848FDF7DDFEEBE60748FDF7D9FEA4E740
:102C00000648FDF7D5FE98E748F6FF76C2E600BF16
:102C1000B4350008A03500088C3500087835000868
:102C20002DE9F04387B08046109D446B681C8946AF
:102C300017461E4605D04346384A294601A8FDF7E7
:102C400007FFFDF7BDFDFDF79BFCD8F83020D8F855
:102C50002C3012681B68D8F828104FEA4909002068
:102C6000A8F82090C8F808001160D8F82410D760A0
:102C700056600E9A1960DA600F9A5A6003E0FDF709
:102C80009FFDFDF77DFC238B9A0702D423889B05CB
:102C90000DD5FDF76DFCFDF77BFD691CEFD0049BA6
:102CA000002BECD14FF0FF3007B0BDE8F083FDF70B
:102CB0005FFCFDF76DFD01351DD0049B002BF1D0AD
:102CC000A388174D9BB243F40073A3802388AA699D
:102CD0009BB243F4807323800220C8F81C20FDF7C8
:102CE00067FF049B13B101A8FDF7E2FEAB69986A88
:102CF00007B0BDE8F083A388094D9BB243F400738D
:102D0000A3802388AA699BB243F4807323800220A6
:102D1000C8F81C20FDF74CFFE8E700BF11260008AB
:102D20004C0D00200000000000000000000000002A
:102D3000034A93899BB243F080039381704700BF9D
:102D40000010014000000000000000000000000032
:102D5000F8B5404EFDF78CFD756FAB892C88A4B299
:102D6000E1059FB24AD4FDF703FCFDF749FDA20639
:102D700021D508E0A9883748C9B2FEF7D1FC2C88D4
:102D8000A4B2A00617D52307F4D014F0080F14BF7F
:102D90008021002114F0010F18BF41F02001A60787
:102DA00048BF41F0400164072B4848BF41F480719F
:102DB000FEF796F9DEE7FDF73BFDFDF7E1FB39068F
:102DC00001D522062BD4630612D5FDF7D1FBFDF702
:102DD00017FD10212048FEF783F9FDF729FDFDF7C7
:102DE000CFFB27F0C0039BB24FF6BF72AB812A80A6
:102DF000FDF75EFDBDE8F840FDF7CABBFDF7B8FB87
:102E0000FDF7FEFC301D4FF40071FEF769F9FDF788
:102E10000FFDFDF7B5FB4FF6FF632B80A3E7FDF732
:102E2000A7FBFDF7EDFC0D48FEF77AFA002806DB5C
:102E300080B2A880FDF7FCFCFDF7A2FBC3E70821E8
:102E40000548FEF74DF927F0C00343F04003AB817E
:102E5000F0E700BFA80E0020AC0E0020D80E002026
:102E600010B5044C044A20460021FEF711FC034B28
:102E7000636710BDA80E0020312D0008001001402E
:102E800038B5204C037A002918BF0C46012B0546A3
:102E900023D06B6F1C4A93422CD002F58062934280
:102EA00028D02168194AB2FBF1F292B21A81A288A5
:102EB000E088218942F4045240F0400042F02C02A4
:102EC00041F0010192B280B289B200241882998245
:102ED0009A811C801A889B8838BD0D4B9842D8D1A6
:102EE0000C4A536C43F010035364C0212520FDF7B6
:102EF0007FFBCEE72168084AB2FBF1F292B21A8159
:102F0000D5E700BF903600080010014080DE800247
:102F1000A80E00200038024000BD0105000000009E
:102F2000FEF726BF000000000000000000000000C7
:102F3000704700BF0000000000000000000000001B
:102F400070B5041E84B04FF0FF3225DD2B211B48E5
:102F5000FEF7B6F91A486E466D4680FB0432E31759
:102F6000C3EBA20303EB8301A4EB41013031C9B2EF
:102F70001CB205F8011B002CEFD1B5420AD9013D66
:102F800001E015F8011D0D484FF0FF32FEF798F9EA
:102F9000AE42F6D104B070BD64422D21074824B280
:102FA000FEF78EF9002CD5D104484FF0FF323021C6
:102FB00004B0BDE87040FEF783B900BFD80E002012
:102FC0006766666600000000000000000000000068
:102FD00069646C6500000000000000000000000053
:102FE00053562331000000005356233200000000E6
:102FF00053562333000000005356233400000000D2
:1030000053562335000000005356233600000000BD
:1030100053562337000000005356233800000000A9
:10302000535623390000000053562331300000006E
:103030005356233131000000000000000000000062
:103040002263685654536574492228290000000001
:10305000226368565452657365744922282900001A
:103060006368565452657365744928292C202331AE
:103070000000000000000000000000000000000050
:10308000636853636852656164794928292C202359
:1030900031000000737461636B206F766572666C3B
:1030A0006F7700000000000000000000000000003A
:1030B00022636854686443726561746549222829F3
:1030C000000000002263685468645365745072699C
:1030D0006F726974792228290000000063685468BF
:1030E00064526573756D6528292C2023310000001A
:1030F000226368546864536C656570222829000057
:103100006368546864457869745328292C202331F6
:1031100000000000226368546864576169742228C3
:103120002900000063685468645761697428292C79
:10313000202331000000000000000000000000001B
:103140006D61696E00168411040448080C1014188F
:103150001C202100002400000000000000000000EE
:103160002263684D7478496E697422282900000032
:103170002263684D74784C6F636B532228290000DA
:1031800063684D74784C6F636B5328292C2023316E
:103190000000000063684D74784C6F636B532829FE
:1031A0002C202332000000002263684D7478547292
:1031B000794C6F636B5322282900000063684D74BB
:1031C00078556E6C6F636B28292C2023310000002A
:1031D00063684D7478556E6C6F636B28292C2023BF
:1031E0003200000063684D7478556E6C6F636B53EA
:1031F00028292C202331000063684D7478556E6CAB
:103200006F636B5328292C2023320000000000003C
:1032100022636845767452656769737465724D619F
:10322000736B222829000000226368457674556E6E
:103230007265676973746572222829002263684584
:1032400076745369676E616C49222829000000007A
:1032500022636845767442726F6164636173744D72
:1032600061736B492228290022636845767453698B
:10327000676E616C22282900226368457674446970
:1032800073706174636822282900000063684576C2
:1032900074446973706174636828292C2023310099
:1032A00022636849515265616454696D656F757434
:1032B000222829002263684F515772697465546946
:1032C0006D656F7574222829000000000000000061
:1032D000226932635374617274222829000000004D
:1032E000693263537461727428292C2023310000E1
:1032F0002269326353746F70222829006932635344
:10330000746F7028292C2023310000002269326359
:103310004765744572726F7273222829000000009D
:10332000226932634D61737465725472616E736D9C
:10333000697454696D656F75742228290000000056
:103340006932634D61737465725472616E736D6935
:103350007454696D656F757428292C202331000021
:10336000226932634D617374657252656365697673
:103370006554696D656F7574222829006932634D43
:1033800061737465725265636569766528292C20BE
:1033900023310000226932634163717569726542AD
:1033A00075732228290000002269326352656C651A
:1033B0006173654275732228290000000000000037
:1033C00022736453746172742228290073645374E5
:1033D00061727428292C2023310000002273645369
:1033E000746F702228290000736453746F70282949
:1033F0002C20233100000000227364496E636F6D3E
:10340000696E6744617461492228290022736452FD
:1034100065717565737444617461492228290000DF
:103420003116000811160008711600085116000820
:103430006116000841160008211600080116000850
:1034400022646D6153747265616D416C6C6F636170
:10345000746522282900000022646D61537472652E
:10346000616D52656C65617365222829000000005A
:10347000646D6153747265616D52656C65617365ED
:1034800028292C202331000000000000000000004B
:10349000106002400860024000000B0028600240FB
:1034A0000860024006010C004060024008600240D3
:1034B00010020D00586002400860024016030E0022
:1034C000706002400C60024000040F0088600240FF
:1034D0000C60024006051000A06002400C60024033
:1034E00010061100B86002400C60024016072F0061
:1034F000106402400864024000083800286402405A
:103500000864024006093900406402400864024031
:10351000100A3A005864024008640240160B3B004F
:10352000706402400C640240000C3C00886402405D
:103530000C640240060D4400A06402400C6402408A
:10354000100E4500B86402400C640240160F46009D
:103550006932635F6C6C645F737461727428292CC8
:10356000202331006932635F6C6C645F7374617235
:103570007428292C202332006932635F6C6C645FED
:10358000737461727428292C202333006932635FBD
:103590006C6C645F737461727428292C202334006E
:1035A0006932635F6C6C645F737461727428292C78
:1035B000202335006932635F6C6C645F73746172E1
:1035C0007428292C20233600226932635F6C6C64D6
:1035D0005F7365745F636C6F636B22282900000062
:1035E0006932635F6C6C645F7365745F636C6F6397
:1035F0006B28292C202331006932635F6C6C645F77
:103600007365745F636C6F636B28292C2023320011
:103610006932635F6C6C645F7365745F636C6F6366
:103620006B28292C202333006932635F6C6C645F44
:103630007365745F636C6F636B28292C20233400DF
:103640006932635F6C6C645F7365745F636C6F6336
:103650006B28292C202335006932635F6C6C645F12
:103660007365745F636C6F636B28292C20233600AD
:103670006932635F6C6C645F7365745F636C6F6306
:103680006B28292C202338000000000000000000D7
:103690000096000000000040000000000000000054
:1036A000AAAAA9AA000000000000000000550064BA
:1036B000000000007777555570A70A008052A100DE
:1036C000C00D0000C00000000A010055C00100004C
:1036D0000000000000440000FF0FAA0200000000EC
:1036E00000005501005055010000000000000000DE
:1036F000CCCC0C00200000AA00000000100000004C
:10370000100000AA00000000000C000000002222AF
:1037100014058828200000000000000046A0AAA987
:103720003000000000000000101010010000000038
:103730000000000000000000000000000000000089
:103740000000000000000000000000000000000079
:103750000000000000000000000000000000000069
:103760000000000000000000000000000000000059
:103770000000000000000000000000000000000049
:103780000000000000000000000000000000000039
:103790000000000000000000000000000000000029
:1037A000783A200020793A2000000000207A3A2060
:1037B000000000000D0A00000000000000000000F2
:0C37C00001000000801A0600020000005A
:04000005080003717B
:00000001FF
