:020000040800F2
:1000000000040020D1020008D1030008D103000839
:10001000D1030008D1030008D1030008D103000870
:10002000D1030008D1030008D103000881040008AF
:10003000D1030008D1030008D103000841040008DF
:10004000D1030008011C0008D1030008F11C0008BE
:10005000D1030008D1030008011A0008311A000872
:10006000611A0008911A0008C11A000881140008DA
:10007000B1140008F11400083115000871150008CA
:10008000A1150008E1150008D1030008D1030008FC
:10009000D1030008D1030008D1030008F11A0008B9
:1000A000D1030008D1030008D1030008D1030008E0
:1000B000D1030008D1030008D103000891210008F2
:1000C000B1210008F121000811220008D103000825
:1000D000D103000851230008D1030008D103000810
:1000E000711B0008311C0008611C0008D1030008C6
:1000F000D1030008D1030008D1030008211600082D
:10010000D1030008D1030008D1030008D10300087F
:10011000D1030008D1030008D1030008D10300086F
:100120006116000891160008D11600081117000882
:1001300051170008D1030008911C0008D1030008E2
:10014000D1030008D1030008D1030008D10300083F
:1001500081170008C117000801180008D103000822
:100160005122000871220008D1030008D1030008C1
:10017000C11C0008D1030008D1030008D103000806
:10018000D1030008D1030008D1030008D1030008FF
:10019000D1030008D1030008D1030008D1030008EF
:0C01A000D1030008D1030008D1030008BF
:1001B0002DE9F04101F02CF800F01AFA0021304846
:1001C000304E314FDFF8E080304D01F0C1F840F2A1
:1001D00082324FF400712E4801F082FE40F28232EA
:1001E0004FF480612A4801F07BFE01224FF4005158
:1001F000304601F075FE7369264C83F40053736139
:10020000642000F0CDFD012140F2032240F20543BD
:100210003980A8F800202B8078214FF0FF321E484B
:1002200000F036FF14F8011F0029F6D1B7F90000DD
:100230001A4C02F085F920214FF0FF32164800F0E9
:1002400027FF14F8011F0029F6D1B8F90000144C5B
:1002500002F076F920214FF0FF320F4800F018FF2E
:1002600014F8011F0029F6D1B5F9000002F068F971
:100270004FF0FF3302220B49074800F061FFBAE755
:10028000A80E002000180240200F0020240F00209C
:1002900000000240202B0008D80E0020242B00086C
:1002A0002C2B0008342B0008220F00200000000037
:1002B000704700BF000000000000000000000000C8
:1002C000FEE700BF0000000000000000000000008A
:1002D00072B6304880F30988022383F31488BFF391
:1002E0006F8F2D4B2D4A93420BD2D9430A4422F0F3
:1002F000030204321A444FF0553143F8041B934271
:10030000FBD1274B83420BD2264AD21A22F003029A
:1003100004321A444FF0553143F8041B9342FBD189
:1003200002F0FEF8204A214B9A420CD2D0431844E6
:1003300020F003001E4B0430184453F8041B42F80D
:10034000041B8342F9D11B4B1B4A93420AD2D94367
:100350000A4422F0030204321A44002143F8041B29
:100360009A42FBD1154D164CFFF7A2FFAC4204D2C6
:1003700054F8043B9847AC42FAD3124D124CFFF7A5
:1003800017FFAC4204D254F8043B9847AC42FAD36E
:10039000FFF796FF00080020000000200004002066
:1003A00000040020FF0700200008002000080020B3
:1003B000382B000800080020280F0020AC0100089E
:1003C000AC010008AC010008AC010008000000000E
:1003D000FEE700BF00000000000000000000000079
:1003E00072B6FEE700000000000000000000000000
:1003F00000F07EF900F02CFC00F092F900DF00BF65
:10040000EFF30983A3F1200282F30988074A1168F8
:1004100092698968926891424FF080708CBF044A5B
:10042000044A43F8040C43F8082C70474C0D002094
:10043000F1030008FC0300080000000000000000B9
:1004400008B500F0C5F900F043F800F089F900F0B4
:1004500007F900F09DF900F043F800F0D9F900F039
:1004600037F8054B5B681B0502D400F039F808BD6E
:10047000BDE80840FFF7C4BF00ED00E00000000049
:1004800000B5EFF30983203383F3098800F028F8DF
:100490005DF804FB00000000000000000000000008
:1004A00008B5094B094A002199600720DA6010213C
:1004B00000F076F820210A2000F072F880210B204D
:1004C000BDE8084000F06CB800ED00E00003FA055C
:1004D000202383F311887047000000000000000013
:1004E000002383F311887047000000000000000023
:1004F00000B5FFF7EDFF064B5B681B0503D55DF804
:1005000004EBFFF77DBFFFF7EBFF5DF804FB00BFD7
:1005100000ED00E00000000000000000000000000E
:100520002DE9F04FC1F80CD0D0F80CD0BDE8F08F19
:1005300008B500F0F5F8FFF7D3FF2846A04700F014
:100540006FFC08BD0000000000000000000000007B
:1005500070B420F0030404F1604404F56144C20067
:100560004309D4F8005302F01802FF269B0096407E
:1005700003F16043914003F5614325EA060200F070
:100580001F00012505FA00F01143C4F80013C3F859
:10059000800170BC1860704700000000000000007F
:1005A00020F0030303F1604303F56D4300F0030003
:1005B00010B4C0009A69FF248440814022EA0400FC
:1005C0000843986110BC7047000000000000000064
:1005D000024B034A9B699A61FEE700BF4C0D002065
:1005E000D02500080000000000000000000000000E
:1005F00030B583B0FFF754FF00F01AFA00F0B0F9FD
:1006000000F0EEFD00F054F940210E480E4D00F0D0
:1006100027FB01240D4BC36180F82040A86100F046
:100620004FF8002383F3118862B6AA6908499161E3
:10063000084800932246084BE02100F081FB03B0FC
:1006400030BD00BF000800204C0D00200004002039
:100650004027000848080020D105000800000000DD
:10066000F8B500F0F5F8124B124D9A692C68536AF0
:1006700001335362EB68AC4203F10103EB6016D027
:10068000A768013FA76097B92368E668E7605D60E7
:100690002B6000F07DF8FFF723FF2069B047FFF7DC
:1006A00017FF00F05DF82C68A368002BECD0F8BDB4
:1006B0004C0D00203C0D0020000000000000000058
:1006C000054B1B6813B9054B1B6823B1044B054A46
:1006D0001A60FFF785BE704728090020340D0020FE
:1006E000380D0020F0250008000000000000000088
:1006F000074B1B6810B5074C0BB9236823B1064B99
:10070000064A1A60FFF76CFE0123236010BD00BF8C
:1007100028090020340D0020380D0020F82500089D
:10072000094B1B6810B5094C2BB92368002B02DD5F
:100730000023236010BD064B064A1A60FFF750FEE7
:100740000023236010BD00BF28090020340D0020C5
:10075000380D002000260008000000000000000006
:10076000074B1B68002B10B5064C01DD236823B135
:10077000054B064A1A60FFF733FE0123236010BDC4
:1007800028090020340D0020380D0020082600081C
:10079000094B1B68002B10B5084C05DD2368002BA6
:1007A00002DD0023236010BD054B064A1A60FFF7E7
:1007B00017FE0023236010BD28090020340D0020FF
:1007C000380D002010260008000000000000000086
:1007D00010B5FFF77DFE094C2368002B02DB084AA9
:1007E00012682AB1074B084A1A60FFF7F9FD23681F
:1007F00001332360FFF774FE10BD00BF28090020FD
:10080000340D0020380D00201826000800000000DC
:1008100010B5FFF75DFE094C2368002B02DD084A86
:1008200012682AB1074B084A1A60FFF7D9FD2368FE
:10083000013B2360FFF754FE10BD00BF28090020D4
:10084000340D0020380D0020202600080000000094
:10085000064B1B68002B04DB054B1B68002B00DDDF
:100860007047044B044A1A60FFF7BABD28090020FC
:10087000340D0020380D002028260008000000005C
:10088000064B1B6823B9064B1B68002B00DD704725
:10089000044B054A1A60FFF7A3BD00BF28090020DA
:1008A000340D0020380D0020302600080000000024
:1008B000034A1346402143F8081B5360704700BFAA
:1008C0002C090020000000000000000000000000D3
:1008D0000B4A0C495368896910B40B4CE4681C60DE
:1008E0005960816A996090F820101973103302F5ED
:1008F00081618B4228BF02F10803536010BC70472E
:100900002C0900204C0D00203C0D002000000000B0
:10091000014B1860FFF764BD380D00200000000097
:100920004B6880E80A0048601860704700000000CB
:100930000346006802681A605360704700000000B8
:1009400090E80600116003685A60704700000000DC
:1009500003681A6802601846704700BF0000000074
:10096000044B4FF0FF3100225B601B609960DA603E
:10097000704700BF3C0D0020000000000000000098
:10098000F8B505460C4616461F46FFF761FFCDB188
:10099000C6B1BCB10D492F610B68EE609A689442F4
:1009A00004D91B68A41A9A68A242FAD35A686A60EA
:1009B0008B422B605D601560AC6002D09968091BAA
:1009C0009960F8BD0248FFF7A3FFE3E73C0D002064
:1009D00040260008000000000000000000000000A9
:1009E00010B50446FFF734FF84B1E36893B1236880
:1009F0000A4A934203D09968A2680A449A606268DE
:100A00001360216800234A60E36010BD0448FFF7CB
:100A10007FFFEAE70348FFF77BFFE8E73C0D002094
:100A200050260008602600080000000000000000BA
:100A3000034B00225B601B605B611B619A60704727
:100A40004C0D00200000000000000000000000002D
:100A500010B50446FFF7FCFE94F820308BB10E2B46
:100A60000FD00022A168094B84F820201B689A68E7
:100A70008A42FBD25A686260236020465C60146040
:100A800010BD0348FFF744FFEBE700BF4C0D00200B
:100A900080260008000000000000000000000000A8
:100AA00010B50446FFF714FDFFF75AFE94F8203006
:100AB000032B0DD00D2B0FD02BB14FF0FF33A362C2
:100AC0002046FFF7C5FFFFF763FEFFF709FD10BDE6
:100AD000A26A9368013393602046FFF731FFECE789
:100AE00070B5104C0646FFF7CBFEA569204685F889
:100AF0002060FFF71DFF0122034680F820202846D2
:100B0000A361FFF7E5FEEA69ADF124039A4202D939
:100B10000548FFF7FDFE2946A069BDE87040FFF7D4
:100B2000FFBC00BF4C0D0020942600080000000010
:100B300070B50C4686B00646FFF7A2FE631C12D0C5
:100B40000D4D0E4AAB69214601A8FFF719FF30464B
:100B5000FFF7C6FF049B13B101A8FFF741FFAB6984
:100B6000986A06B070BD044D3046FFF7B9FFAB6917
:100B7000986A06B070BD00BF4C0D0020A10A0008A5
:100B800070B5164D04460E46FFF77AFEA869A662B8
:100B90008368A2689A4213D9FFF75AFF01230646D9
:100BA00084F82030AC61FFF793FEF269ADF12403C5
:100BB0009A420AD831462046BDE87040FFF7B0BCE3
:100BC0002046BDE87040FFF743BF0548FFF7A0FE91
:100BD00031462046BDE87040FFF7A2BC4C0D002016
:100BE0009426000800000000000000000000000043
:100BF000F8B5144E3046B569FFF79AFE012380F828
:100C000020300023AC6885F820303746B061334689
:100C10001B689A68A242FBD85A686A602B60284613
:100C20005D601560FFF754FEEA69ADF124039A4256
:100C300002D90548FFF76CFE2946B869BDE8F840BF
:100C4000FFF76EBC4C0D0020942600080000000049
:100C5000FFF7CEBF00000000000000000000000011
:100C6000F0B50F4C416465698160002200F13001EC
:100C70004FF0020E00F12C0700F1480645610461B7
:100C800080F820E0606180F821200264C263426243
:100C900082612861C762C66141630163F0BD00BF24
:100CA0004C0D0020000000000000000000000000CB
:100CB0002DE9F04104460D4617469846FFF7C8FD5A
:100CC0000CB1CF2D2CD81948FFF722FEA5F1240135
:100CD00065181748069B4669164AE5604FF0020CF6
:100CE00044F801806B6000232A6204F1480104F19A
:100CF000300204F12C0584F820C084F821302061F2
:100D0000A7606661676444612364E3636362A3610F
:100D100020463461E56262632263E161BDE8F081EF
:100D20007F2FD0D8B8F1000FD0D1CCE7B026000883
:100D30004C0D0020310500080000000000000000FC
:100D40002DE9F04782B09A460A9E074688469146AA
:100D500000F148040346FF2503F8015B9C42FBD1E8
:100D600007EB08039C4204D2552504F8015BA3421B
:100D7000FBD1FFF7ADFBFFF7BBFC53464A464146AC
:100D800000963846FFF794FF00210446FFF7F8FE6F
:100D9000FFF7C6FCFFF7A4FB204602B0BDE8F087D2
:100DA00010B5044610B90848FFF7B2FDFFF790FBF5
:100DB000FFF79EFC21460620FFF7BAFEFFF7B0FCC6
:100DC000FFF78EFB10BD00BFF026000800000000FA
:100DD00038B5104B9D69EB6AA86205F12C049C4262
:100DE00007D02046FFF7B4FDFFF732FEEB6AA342BF
:100DF000F7D195F821309B0704D16B692A691A61F4
:100E00002A6953610E20FFF76BFE0348BDE83840A6
:100E1000FFF77EBD4C0D00200027000800000000F9
:100E200010B50446FFF754FBFFF762FC2046BDE80F
:100E30001040FFF7CDBF00BF000000000000000021
:100E400010B5044620B1002364602460A36010BD87
:100E50000148FFF75DFDF6E760270008000000008D
:100E600038B504460D46FFF7F3FCBCB1E36B94F8CC
:100E7000202045EA0301082AE1630BD0092A00D0AB
:100E800038BDA36A8B43FBD12046FFF7E1FD002369
:100E9000836238BDA36A1942F6D138BD0148FFF715
:100EA00037FDE3E73C2800080000000000000000D8
:100EB00070B505460E46FFF7CBFC65B12C68A54220
:100EC00008D0201D0BC83343E360FFF7C9FF246837
:100ED000A542F6D170BD0248FFF71AFDEEE700BF4C
:100EE0005028000800000000000000000000000082
:100EF00071B110B5084A034690690C4683621946E1
:100F0000FFF70EFD21460D20BDE81040FFF710BE93
:100F10004FF0FF30704700BF4C0D00200000000074
:100F200030B4029C046200250A448560026140607E
:100F3000006041618161C160C36130BC704700BF26
:100F400038B504460D46FFF783FCA36962699A42EF
:100F5000A3681BD00133511CA360616115706269E5
:100F600023699A420BD22368A3420DD02046FFF793
:100F7000DFFCFFF76DFD00238362184638BDE36890
:100F800063612368A342F1D1002038BD002BE1D07A
:100F90006FF0030038BD00BF00000000000000003B
:100FA00070B504460E46FFF793FAFFF7A1FBE3691D
:100FB00033B12046984703E0FFF79AFF051E10DB88
:100FC000A36831462046002BF6D0A16920694A1C4F
:100FD000013B8242A360A26128BFE3680D7828BF6D
:100FE000A361FFF79DFBFFF77BFA284670BD00BFAA
:100FF0002DE9F843044688461D46C76991468AB3E1
:10100000FFF766FAFFF774FB00262FB12046B847BA
:1010100002E0FFF76DFFF0B9A36829462046002BD8
:10102000F7D0A269013B511CA161A360137808F8B5
:10103000013B2369A2699A4224BFE368A361FFF7D9
:101040006FFBFFF74DFA0136B14508D0FFF740FAC4
:10105000FFF74EFBD9E7FFF763FBFFF741FA304696
:10106000BDE8F8830148FFF753FCC9E7A028000852
:1010700030B4029C04628D1805614060006082609B
:1010800041618161C160C36130BC704700000000F4
:10109000F8B504460F461646FFF71AFAFFF728FB85
:1010A00003E0FFF725FF051E1ADBA3683146204643
:1010B000002BF6D06269013B511C6161A36017707F
:1010C000236962699A4224BFE3686361E3690BB1F3
:1010D00020469847FFF724FBFFF702FA0020F8BDEF
:1010E000FFF71EFBFFF7FCF92846F8BD00000000E3
:1010F00038B50446FFF7ACFB6369A2699342A36865
:1011000016D02069511C0133A360A161814215787A
:101110000BD22368A34206D02046FFF709FCFFF755
:1011200097FC00238362284638BDE368A361F0E79B
:10113000002BE6D06FF0020038BD00BF00000000B9
:101140002DE9F04704460D469A46D0F81C90164605
:10115000002A3AD0FFF7BCF9FFF7CAFA4FF00008AF
:10116000A3686F1C5A1E204613B36369A2605A1C01
:1011700062612A781A70236962699A4224BFE3681F
:101180006361B9F1000F00D0C847FFF7C9FAFFF754
:10119000A7F9013E08F1010814D0FFF799F9FFF70C
:1011A000A7FAA3683D465A1E6F1C2046002BDCD1CF
:1011B00051462046FFF79CFE0028D1D0FFF7B0FA39
:1011C000FFF78EF94046BDE8F0870248FFF7A0FB25
:1011D000C0E700BFB42800080000000000000000C5
:1011E000054A064B0648074922F0070223F0070389
:1011F00002600B60704700BF2F0F002000C001206D
:101200006C0D0020680D00200000000000000000B0
:1012100008B500F045FB00F013F9064800F088FD22
:1012200000F00EF800F01CF800F06AF8BDE8084085
:1012300001F07EB9202A0008000000000000000034
:1012400000F06EBD00000000000000000000000083
:101250000122002302704360704700BF00000000BD
:1012600001F026B8000000000000000000000000AF
:1012700001220023027043600C30FFF7E1BD00BF84
:101280000C30FFF7B5BE00BF0000000000000000FA
:101290000C304FF0FF33FFF7ABBE00BF0000000083
:1012A0003030FFF74DBF00BF00000000000000001D
:1012B00030304FF0FF33FFF743BF00BF00000000A6
:1012C0000C30FFF76DBE00BF000000000000000002
:1012D0000C304FF0FF31FFF763BE00BF000000008D
:1012E0003030FFF7D5BE00BF000000000000000056
:1012F00030304FF0FF32FFF7CBBE00BF00000000E0
:1013000001F0AEB800000000000000000000000086
:1013100070B50E4B044682B040F8043B01260094A1
:1013200015460B46606004F1540104F10C0026726E
:101330001022FFF7F5FD00942B4604F1640104F13F
:1013400030001022FFF794FE02B070BD3029000873
:1013500038B50D460446A8B1FFF7BAF8FFF7C8F94B
:10136000237A013B012B02D90848FFF7D1FA29461D
:10137000204601F085F802232372FFF7D1F9FFF729
:10138000AFF838BD0248FFF7C3FAE5E7DC280008EC
:10139000D02800080000000000000000000000004D
:1013A00038B504460D46FFF753FAD4B163693BB133
:1013B000294604F10C00FFF7C3FD00280BDB38BD04
:1013C00004216018FFF774FD294604F10C00FFF7B3
:1013D000B7FD0028F3DA201D8021BDE83840FFF773
:1013E00067BD0248FFF794FAE0E700BF082900084C
:1013F000014B5B6883607047001000E00000000054
:101400000A4A0B498368526810B40C68C168D31A41
:101410001B1B8B42836005D8026910BC934238BF06
:1014200003617047C36010BC704700BF001000E04C
:10143000700D00200000000000000000000000000F
:1014400010B586B00A4C0B4B0B4901934FF0FF309F
:1014500000230590236004934B68084A039301A876
:101460000292FFF7CDFF039B236006B010BD00BFC3
:10147000700D0020F1130008001000E001140008B6
:1014800008B5FFF7A5F9084B084A196801F03D01B6
:10149000996013680BB150689847FFF7B9F9BDE838
:1014A0000840FFF725B800BF00600240740D00201F
:1014B00010B5FFF78DF9094B094819688268890949
:1014C00001F03D018C019C600AB1C0689047FFF7B4
:1014D0009FF9BDE81040FFF70BB800BF0060024065
:1014E000740D00200000000000000000000000005B
:1014F00010B5FFF76DF9094B094819680269090C25
:1015000001F03D010C049C600AB140699047FFF76F
:101510007FF9BDE81040FEF7EBBF00BF006002405E
:10152000740D00200000000000000000000000001A
:1015300010B5FFF74DF9094B094819688269890D03
:1015400001F03D018C059C600AB1C0699047FFF72E
:101550005FF9BDE81040FEF7CBBF00BF006002405E
:10156000740D0020000000000000000000000000DA
:1015700008B5FFF72DF9084B08485968026A01F0D1
:101580003D01D9600AB1406A9047FFF741F9BDE8D3
:101590000840FEF7ADBF00BF00600240740D0020A0
:1015A00010B5FFF715F9094B09485968826A89098E
:1015B00001F03D018C01DC600AB1C06A9047FFF781
:1015C00027F9BDE81040FEF793BF00BF006002405E
:1015D000740D00200000000000000000000000006A
:1015E00010B5FFF7F5F8094B09485968026B090C6B
:1015F00001F03D010C04DC600AB1406B9047FFF73D
:1016000007F9BDE81040FEF773BF00BF006002405D
:10161000740D002000000000000000000000000029
:1016200010B5FFF7D5F8094B09485968826B890D49
:1016300001F03D018C05DC600AB1C06B9047FFF7FB
:10164000E7F8BDE81040FEF753BF00BF006002405E
:10165000740D0020000000000000000000000000E9
:1016600008B5FFF7B5F8084B08481968026C01F097
:101670003D0199600AB1406C9047FFF7C9F8BDE899
:101680000840FEF735BF00BF00640240740D002023
:1016900010B5FFF79DF8094B09481968826C890954
:1016A00001F03D018C019C600AB1C06C9047FFF7CE
:1016B000AFF8BDE81040FEF71BBF00BF006402405A
:1016C000740D002000000000000000000000000079
:1016D00010B5FFF77DF8094B09481968026D090C30
:1016E00001F03D010C049C600AB1406D9047FFF78A
:1016F0008FF8BDE81040FEF7FBBE00BF006402405B
:10170000740D002000000000000000000000000038
:1017100010B5FFF75DF8094B09481968826D890D0E
:1017200001F03D018C059C600AB1C06D9047FFF748
:101730006FF8BDE81040FEF7DBBE00BF006402405A
:10174000740D0020000000000000000000000000F8
:1017500008B5FFF73DF8084B08485968026E01F0DC
:101760003D01D9600AB1406E9047FFF751F8BDE8DE
:101770000840FEF7BDBE00BF00640240740D0020AB
:1017800010B5FFF725F8094B09485968826E890999
:1017900001F03D018C01DC600AB1C06E9047FFF79B
:1017A00037F8BDE81040FEF7A3BE00BF006402405A
:1017B000740D002000000000000000000000000088
:1017C00010B5FFF705F8094B09485968026F090C75
:1017D00001F03D010C04DC600AB1406F9047FFF757
:1017E00017F8BDE81040FEF783BE00BF006402405A
:1017F000740D002000000000000000000000000048
:1018000010B5FEF7E5FF094B09485968826F890D4D
:1018100001F03D018C05DC600AB1C06F9047FEF716
:10182000F7FFBDE81040FEF763BE00BF0064024052
:10183000740D002000000000000000000000000007
:101840000E490F4A0F48002310B40B600E4C194686
:1018500001E052F80C0C016044F833100133102BF6
:1018600002F10C02F5D10949094A10BC4FF0FF33CF
:101870008B60CB609360D360704700BFF40D002095
:101880005C29000810600240740D002000600240D6
:1018900000640240000000000000000000000000A2
:1018A0001F4B20491A694FF0FF300022F0B5186134
:1018B0001A615C6958615A611C6A1B4E1B4F1C4DB2
:1018C00064F080541C621A620724D3F824E0586242
:1018D0005A624F608A600C60F168164841F080716E
:1018E000F160296841F001012960196C41F08051D3
:1018F0001964016841F480710160196F01F440714D
:10190000B1F5007F03D04FF4803119671A67094A97
:10191000536823F400735360BDE8F040FFF790BFB5
:101920000038024010E000E0F0ED00E03F900200DF
:10193000001000E000700040000000000000000007
:101940002A4A2B4B4FF080504FF4404110641960ED
:10195000136843F001031360136824499807FBD50B
:101960000B68002203F0F9030B6008468A60826866
:101970001E4B12F00C0FFAD11A6842F480321A6032
:101980001A461168194B8903FBD55A6F42F00102C0
:101990005A675A6F15499007FBD5164B4B600B6879
:1019A000134A43F080730B6053685904FCD50F4908
:1019B0000A680E4B9201FBD50F4A1049996040F21C
:1019C000057111609A6842F002029A601A469368A3
:1019D000064903F00C03082BF9D14B6C43F4804308
:1019E0004B644B6E43F480434B66704700380240B3
:1019F0000070004008544007003C02400094083842
:101A000008B5FEF7E5FE0748074A436801215B6811
:101A1000516100219847FEF7FBFEBDE80840FEF744
:101A200067BD00BFF80D0020003C01400000000031
:101A300008B5FEF7CDFE0748074A43680221DB6878
:101A4000516101219847FEF7E3FEBDE80840FEF72B
:101A50004FBD00BFF80D0020003C01400000000019
:101A600008B5FEF7B5FE0748074A436804215B69DD
:101A7000516102219847FEF7CBFEBDE80840FEF712
:101A800037BD00BFF80D0020003C01400000000001
:101A900008B5FEF79DFE0748074A43680821DB6941
:101AA000516103219847FEF7B3FEBDE80840FEF7F9
:101AB0001FBD00BFF80D0020003C014000000000E9
:101AC00008B5FEF785FE0748074A436810215B6AA0
:101AD000516104219847FEF79BFEBDE80840FEF7E0
:101AE00007BD00BFF80D0020003C014000000000D1
:101AF00010B5FEF76DFE194B5C6904F478725A61FB
:101B0000A30624D460061CD4210614D4E2050CD408
:101B1000A30504D5124843680921DB6C9847FEF7FA
:101B200077FEBDE81040FEF7E3BC0D48436808218E
:101B30005B6C9847ECE70A4843680721DB6B9847E2
:101B4000E4E70748436806215B6B9847DCE70448F5
:101B500043680521DB6A9847D4E700BF003C014099
:101B6000F80D002000000000000000000000000050
:101B700010B5FEF72DFE1D4B5C6904F47C425A61E2
:101B800062052CD4230524D4E0041CD4A10414D46D
:101B900062040CD4230404D5154843680F21DB6F7D
:101BA0009847FEF735FEBDE81040FEF7A1BC10488F
:101BB00043680E215B6F9847ECE70D4843680D21A1
:101BC000DB6E9847E4E70A4843680C215B6E984750
:101BD000DCE7074843680B21DB6D9847D4E70448EE
:101BE00043680A215B6D9847CCE700BF003C014089
:101BF000F80D0020000000000000000000000000C0
:101C000008B5FEF7E5FD0848084A43684FF48031FF
:101C1000D3F88430516110219847FEF7F9FDBDE8F3
:101C20000840FEF765BC00BFF80D0020003C0140F5
:101C300008B5FEF7CDFD0848084A43684FF4003167
:101C4000D3F88C30516111219847FEF7E1FDBDE8D2
:101C50000840FEF74DBC00BFF80D0020003C0140DD
:101C600008B5FEF7B5FD0848084A43684FF48021DF
:101C7000D3F89430516112219847FEF7C9FDBDE8B1
:101C80000840FEF735BC00BFF80D0020003C0140C5
:101C900008B5FEF79DFD0848084A43684FF4002147
:101CA000D3F89C30516113219847FEF7B1FDBDE890
:101CB0000840FEF71DBC00BFF80D0020003C0140AD
:101CC00008B5FEF785FD0848084A43684FF48011BF
:101CD000D3F8A430516114219847FEF799FDBDE86F
:101CE0000840FEF705BC00BFF80D0020003C014095
:101CF00008B5FEF76DFD0848084A43684FF48001B7
:101D0000D3F8B430516116219847FEF781FDBDE844
:101D10000840FEF7EDBB00BFF80D0020003C01407D
:101D20000148FFF795BA00BFF80D00200000000041
:101D3000F0B4654D654C2F6B6549664A664B40F2C1
:101D4000FF1637432F632F6D3E432E654568656050
:101D50008568A560C568E5600569656145692562B6
:101D60008569656205682560046A4C60446A8C6018
:101D7000846ACC60C46A4C61046B0C62446B4C6234
:101D8000C4690C60C16B5160016C9160416CD160A1
:101D9000816C5161C16C1162016D5162816B116086
:101DA000826D5A60C26D9A60026EDA60426E5A614C
:101DB000826E1A62C26E5A62426D1A60426FC3F836
:101DC0000424826FC3F80824C26FC3F80C24D0F82F
:101DD0008020C3F81424D0F88420C3F82024D0F83D
:101DE0008820C3F82424026FC3F80024D0F8902080
:101DF000C3F80428D0F89420C3F80828D0F8982015
:101E0000C3F80C28D0F89C20C3F81428D0F8A020E0
:101E1000C3F82028D0F8A420C3F82428D0F88C20B8
:101E2000C3F8002803F54063D0F8AC205A60D0F81E
:101E3000B0209A60D0F8B420DA60D0F8B8205A61A7
:101E4000D0F8BC201A62D0F8C0205A62D0F8A8207E
:101E50001A60D0F8C820C3F80424D0F8CC20C3F806
:101E60000824D0F8D020C3F80C24D0F8D420C3F82C
:101E70001424D0F8D820C3F82024D0F8DC20C3F8EC
:101E80002424D0F8C420C3F80024D0F8E420C3F8F8
:101E90000428D0F8E820C3F80828D0F8EC20C3F8CC
:101EA0000C28D0F8F020C3F81428D0F8F420C3F898
:101EB0002028D0F8F820C3F82428D0F8E020C3F870
:101EC0000028F0BC704700BF00380240000002400C
:101ED0000004024000080240000C02400000000024
:101EE0002DE9F04F4FF00F0C02F0030EC2F3800704
:101EF000C2F3C106C2F341150024C2F3C3124FF06E
:101F000001094FF0030830E0D0F820B02BEA0303BA
:101F100043EA0A030362436809FA04FA23EA0A035C
:101F20003B4343606300D0F808A008FA03F3DB43A7
:101F30000AEA030A4AEA060AC0F808A0D0F80CA088
:101F400003EA0A0A4AEA050AC0F80CA0D0F800A081
:101F500003EA0A0343EA0E030360490819D07F002D
:101F6000B600AD004FEA8E0E013404F007039B006B
:101F700011F0010F02FA03FA0CFA03F3EDD0072C6B
:101F8000C2D9D0F824B02BEA030343EA0A03436220
:101F9000C1E7BDE8F08F00BF0000000000000000B6
:101FA000F8B5446B434A238BA58AADB245EA034397
:101FB00023F07F43934251D01ED8073A934241D039
:101FC0000132934213D1A388C26A23F400731B0425
:101FD00012681B0CA380136843F001031360A388ED
:101FE0009BB243F48053A3805368012B5BD915F057
:101FF0000A0F18BF238BF8BD2F4A934211D002322B
:102000009342F4D1C36A1B685F68002F2FD02388E6
:10201000028C9BB243F4A06342F00102028423804D
:10202000F8BDA388026B23F400731B0412681B0C19
:10203000A380136843F00103136015F00A0F18BF63
:10204000238BF8BD038C1A0A0BD003F0010343F075
:10205000F00302F0060213432382C8E7038CC3F3A4
:102060004703238215F00A0F18BF238BF8BDA388FE
:1020700023F400731B041B0CA38023889BB243F43E
:10208000007306462380FEF723FAFEF769FBF36927
:1020900023B1F76118469F62FEF7DAFCFEF778FB82
:1020A000FEF71EFAA3E7238823F480631B041B0CAE
:1020B00023809CE708000300820007000000000066
:1020C00070B5056B2A68136823F01F03136013684B
:1020D000DE07FCD42E7AC46A6D6822683D23B340C3
:1020E0002B60136823F01F031360136813F00103C0
:1020F000FBD1257A64683D22AA40CD05226048BF05
:1021000001238C05836044BF43F0020383604A05CA
:102110000ED5446BA28822F400721204120CA28025
:10212000228892B243F0040342F40072228083605A
:102130000E0544BF43F0080383604D0444BF43F0E1
:1021400020038360CC0418D543F010030904836096
:1021500018D40446FEF7BCF9FEF702FBE3693BB175
:1021600000216FF00102E16118469A62FEF770FCEF
:10217000FEF70EFBFEF7B4F970BD0A0402D4002B83
:10218000E7D170BD43F040038360E2E70000000048
:1021900008B5FEF71DFB0448FFF702FFFEF738FB0A
:1021A000BDE80840FEF7A4B9000E002000000000C2
:1021B00038B50C4D6B6B9C8AA4B2FEF709FB04F496
:1021C0005F436A6B83F47F4383F0FF03214693826E
:1021D0002846FFF775FFFEF71BFBBDE83840FEF70A
:1021E00087B900BF000E00200000000000000000C2
:1021F00008B5FEF7EDFA0448FFF7D2FEFEF708FB3C
:10220000BDE80840FEF774B9380E00200000000059
:1022100038B50C4D6B6B9C8AA4B2FEF7D9FA04F466
:102220005F436A6B83F47F4383F0FF03214693820D
:102230002846FFF745FFFEF7EBFABDE83840FEF70A
:1022400057B900BF380E0020000000000000000059
:1022500008B5FEF7BDFA0448FFF7A2FEFEF7D8FA6C
:10226000BDE80840FEF744B9700E002000000000F1
:1022700038B50C4D6B6B9C8AA4B2FEF7A9FA04F436
:102280005F436A6B83F47F4383F0FF0321469382AD
:102290002846FFF715FFFEF7BBFABDE83840FEF70A
:1022A00027B900BF700E00200000000000000000F1
:1022B0002DE9F041144F154C154E164D3846FEF7DA
:1022C000D7FF154B7B634FF0000804F148033046FD
:1022D000FC623B63C7F81C80FEF7CAFF04F11807D5
:1022E00004F154030D4A33632846C6F81C80726318
:1022F000F7623034FEF7BCFF094BEF622C63C5F880
:102300001C806B63BDE8F081000E0020502900089E
:10231000380E0020700E002000540040005800408D
:10232000005C004000000000000000000000000011
:10233000034A93899BB243F080039381704700BFA7
:10234000001001400000000000000000000000003C
:10235000F8B5404EFEF73CFA756FAB892C88A4B2F5
:10236000E1059FB24AD4FEF7B3F8FEF7F9F9A206E9
:1023700021D508E0A9883748C9B2FFF711F82C88A1
:10238000A4B2A00617D52307F4D014F0080F14BF89
:102390008021002114F0010F18BF41F02001A60791
:1023A00048BF41F0400164072B4848BF41F48071A9
:1023B000FEF77EFDDEE7FEF7EBF9FEF791F8390652
:1023C00001D522062BD4630612D5FEF781F8FEF75D
:1023D000C7F910212048FEF76BFDFEF7D9F9FEF78B
:1023E0007FF827F0C0039BB24FF6BF72AB812A8003
:1023F000FEF70EFABDE8F840FEF77AB8FEF768F887
:10240000FEF7AEF9301D4FF40071FEF751FDFEF7F7
:10241000BFF9FEF765F84FF6FF632B80A3E7FEF7E1
:1024200057F8FEF79DF90D48FEF762FE002806DB1F
:1024300080B2A880FEF7ACF9FEF752F8C3E7082196
:102440000548FEF735FD27F0C00343F04003AB819C
:10245000F0E700BFA80E0020AC0E0020D80E002030
:1024600010B5044C044A20460021FEF751FF034BEF
:10247000636710BDA80E0020312300080010014042
:1024800038B5204C037A002918BF0C46012B0546AD
:1024900023D06B6F1C4A93422CD002F5806293428A
:1024A00028D02168194AB2FBF1F292B21A81A288AF
:1024B000E088218942F4045240F0400042F02C02AE
:1024C00041F0010192B280B289B20024188299824F
:1024D0009A811C801A889B8838BD0D4B9842D8D1B0
:1024E0000C4A536C43F010035364C0212520FEF7BF
:1024F0002FF8CEE72168084AB2FBF1F292B21A81B6
:10250000D5E700BF102A00080010014080DE8002DD
:10251000A80E00200038024000BD010500000000A8
:10252000FFF70EBA000000000000000000000000ED
:10253000704700BF00000000000000000000000025
:1025400070B5041E84B04FF0FF3225DD2B211B48EF
:10255000FEF79EFD1A486E466D4680FB0432E31777
:10256000C3EBA20303EB8301A4EB41013031C9B2F9
:102570001CB205F8011B002CEFD1B5420AD9013D70
:1025800001E015F8011D0D484FF0FF32FEF780FD08
:10259000AE42F6D104B070BD64422D21074824B28A
:1025A000FEF776FD002CD5D104484FF0FF323021E4
:1025B00004B0BDE87040FEF76BBD00BFD80E002030
:1025C0006766666600000000000000000000000072
:1025D00069646C650000000000000000000000005D
:1025E00053562331000000005356233200000000F0
:1025F00053562333000000005356233400000000DC
:1026000053562335000000005356233600000000C7
:1026100053562337000000005356233800000000B3
:102620005356233900000000535623313000000078
:10263000535623313100000000000000000000006C
:10264000226368565453657449222829000000000B
:102650002263685654526573657449222829000024
:102660006368565452657365744928292C202331B8
:10267000000000000000000000000000000000005A
:10268000636853636852656164794928292C202363
:1026900031000000737461636B206F766572666C45
:1026A0006F77000000000000000000000000000044
:1026B00022636854686443726561746549222829FD
:1026C00000000000226368546864536574507269A6
:1026D0006F726974792228290000000063685468C9
:1026E00064526573756D6528292C20233100000024
:1026F000226368546864536C656570222829000061
:102700006368546864457869745328292C20233100
:1027100000000000226368546864576169742228CD
:102720002900000063685468645761697428292C83
:102730002023310000000000000000000000000025
:102740006D61696E00168411040448080C10141899
:102750001C202100002400000000000000000000F8
:102760002263684D7478496E69742228290000003C
:102770002263684D74784C6F636B532228290000E4
:1027800063684D74784C6F636B5328292C20233178
:102790000000000063684D74784C6F636B53282908
:1027A0002C202332000000002263684D747854729C
:1027B000794C6F636B5322282900000063684D74C5
:1027C00078556E6C6F636B28292C20233100000034
:1027D00063684D7478556E6C6F636B28292C2023C9
:1027E0003200000063684D7478556E6C6F636B53F4
:1027F00028292C202331000063684D7478556E6CB5
:102800006F636B5328292C20233200000000000046
:1028100022636845767452656769737465724D61A9
:10282000736B222829000000226368457674556E78
:10283000726567697374657222282900226368458E
:1028400076745369676E616C492228290000000084
:1028500022636845767442726F6164636173744D7C
:1028600061736B4922282900226368457674536995
:10287000676E616C2228290022636845767444697A
:1028800073706174636822282900000063684576CC
:1028900074446973706174636828292C20233100A3
:1028A00022636849515265616454696D656F75743E
:1028B000222829002263684F515772697465546950
:1028C0006D656F757422282900000000000000006B
:1028D00022736453746172742228290073645374E0
:1028E00061727428292C2023310000002273645364
:1028F000746F702228290000736453746F70282944
:102900002C20233100000000227364496E636F6D38
:10291000696E6744617461492228290022736452F8
:1029200065717565737444617461492228290000DA
:10293000B112000891120008F1120008D11200082B
:10294000E1120008C1120008A1120008811200085B
:10295000106002400860024000000B002860024046
:102960000860024006010C0040600240086002401E
:1029700010020D00586002400860024016030E006D
:10298000706002400C60024000040F00886002404A
:102990000C60024006051000A06002400C6002407E
:1029A00010061100B86002400C60024016072F00AC
:1029B00010640240086402400008380028640240A5
:1029C000086402400609390040640240086402407D
:1029D000100A3A005864024008640240160B3B009B
:1029E000706402400C640240000C3C0088640240A9
:1029F0000C640240060D4400A06402400C640240D6
:102A0000100E4500B86402400C640240160F4600E8
:102A100000960000000000400000000000000000E0
:102A2000AAAAA9AA00000000000000000055006446
:102A3000000000007777555570A70A008052A1006A
:102A4000C00D0000C00000000A010055C0010000D8
:102A50000000000000440000FF0FAA020000000078
:102A6000000055010050550100000000000000006A
:102A7000CCCC0C00200000AA0000000010000000D8
:102A8000100000AA00000000000C0000000022223C
:102A900014058828200000000000000046A0AAA914
:102AA00030000000000000001010100100000000C5
:102AB0000000000000000000000000000000000016
:102AC0000000000000000000000000000000000006
:102AD00000000000000000000000000000000000F6
:102AE00000000000000000000000000000000000E6
:102AF00000000000000000000000000000000000D6
:102B000000000000000000000000000000000000C5
:102B100000000000000000000000000000000000B5
:102B2000783A200020793A2000000000207A3A20EC
:082B3000000000000D0A000086
:04000005080002D11C
:00000001FF
